{
  "_format": "hh-sol-artifact-1",
  "contractName": "NEWCToken",
  "sourceName": "contracts/NEWCToken.sol",
  "abi": [
    {
      "inputs": [],
      "stateMutability": "nonpayable",
      "type": "constructor"
    },
    {
      "inputs": [
        {
          "internalType": "address",
          "name": "spender",
          "type": "address"
        },
        {
          "internalType": "uint256",
          "name": "allowance",
          "type": "uint256"
        },
        {
          "internalType": "uint256",
          "name": "needed",
          "type": "uint256"
        }
      ],
      "name": "ERC20InsufficientAllowance",
      "type": "error"
    },
    {
      "inputs": [
        {
          "internalType": "address",
          "name": "sender",
          "type": "address"
        },
        {
          "internalType": "uint256",
          "name": "balance",
          "type": "uint256"
        },
        {
          "internalType": "uint256",
          "name": "needed",
          "type": "uint256"
        }
      ],
      "name": "ERC20InsufficientBalance",
      "type": "error"
    },
    {
      "inputs": [
        {
          "internalType": "address",
          "name": "approver",
          "type": "address"
        }
      ],
      "name": "ERC20InvalidApprover",
      "type": "error"
    },
    {
      "inputs": [
        {
          "internalType": "address",
          "name": "receiver",
          "type": "address"
        }
      ],
      "name": "ERC20InvalidReceiver",
      "type": "error"
    },
    {
      "inputs": [
        {
          "internalType": "address",
          "name": "sender",
          "type": "address"
        }
      ],
      "name": "ERC20InvalidSender",
      "type": "error"
    },
    {
      "inputs": [
        {
          "internalType": "address",
          "name": "spender",
          "type": "address"
        }
      ],
      "name": "ERC20InvalidSpender",
      "type": "error"
    },
    {
      "anonymous": false,
      "inputs": [
        {
          "indexed": true,
          "internalType": "address",
          "name": "owner",
          "type": "address"
        },
        {
          "indexed": true,
          "internalType": "address",
          "name": "spender",
          "type": "address"
        },
        {
          "indexed": false,
          "internalType": "uint256",
          "name": "value",
          "type": "uint256"
        }
      ],
      "name": "Approval",
      "type": "event"
    },
    {
      "anonymous": false,
      "inputs": [
        {
          "indexed": true,
          "internalType": "address",
          "name": "from",
          "type": "address"
        },
        {
          "indexed": true,
          "internalType": "address",
          "name": "to",
          "type": "address"
        },
        {
          "indexed": false,
          "internalType": "uint256",
          "name": "value",
          "type": "uint256"
        }
      ],
      "name": "Transfer",
      "type": "event"
    },
    {
      "inputs": [
        {
          "internalType": "address",
          "name": "owner",
          "type": "address"
        },
        {
          "internalType": "address",
          "name": "spender",
          "type": "address"
        }
      ],
      "name": "allowance",
      "outputs": [
        {
          "internalType": "uint256",
          "name": "",
          "type": "uint256"
        }
      ],
      "stateMutability": "view",
      "type": "function"
    },
    {
      "inputs": [
        {
          "internalType": "address",
          "name": "spender",
          "type": "address"
        },
        {
          "internalType": "uint256",
          "name": "value",
          "type": "uint256"
        }
      ],
      "name": "approve",
      "outputs": [
        {
          "internalType": "bool",
          "name": "",
          "type": "bool"
        }
      ],
      "stateMutability": "nonpayable",
      "type": "function"
    },
    {
      "inputs": [
        {
          "internalType": "address",
          "name": "account",
          "type": "address"
        }
      ],
      "name": "balanceOf",
      "outputs": [
        {
          "internalType": "uint256",
          "name": "",
          "type": "uint256"
        }
      ],
      "stateMutability": "view",
      "type": "function"
    },
    {
      "inputs": [],
      "name": "decimals",
      "outputs": [
        {
          "internalType": "uint8",
          "name": "",
          "type": "uint8"
        }
      ],
      "stateMutability": "view",
      "type": "function"
    },
    {
      "inputs": [
        {
          "internalType": "address",
          "name": "account",
          "type": "address"
        }
      ],
      "name": "mint",
      "outputs": [],
      "stateMutability": "nonpayable",
      "type": "function"
    },
    {
      "inputs": [],
      "name": "name",
      "outputs": [
        {
          "internalType": "string",
          "name": "",
          "type": "string"
        }
      ],
      "stateMutability": "view",
      "type": "function"
    },
    {
      "inputs": [],
      "name": "symbol",
      "outputs": [
        {
          "internalType": "string",
          "name": "",
          "type": "string"
        }
      ],
      "stateMutability": "view",
      "type": "function"
    },
    {
      "inputs": [],
      "name": "totalSupply",
      "outputs": [
        {
          "internalType": "uint256",
          "name": "",
          "type": "uint256"
        }
      ],
      "stateMutability": "view",
      "type": "function"
    },
    {
      "inputs": [
        {
          "internalType": "address",
          "name": "to",
          "type": "address"
        },
        {
          "internalType": "uint256",
          "name": "value",
          "type": "uint256"
        }
      ],
      "name": "transfer",
      "outputs": [
        {
          "internalType": "bool",
          "name": "",
          "type": "bool"
        }
      ],
      "stateMutability": "nonpayable",
      "type": "function"
    },
    {
      "inputs": [
        {
          "internalType": "address",
          "name": "from",
          "type": "address"
        },
        {
          "internalType": "address",
          "name": "to",
          "type": "address"
        },
        {
          "internalType": "uint256",
          "name": "value",
          "type": "uint256"
        }
      ],
      "name": "transferFrom",
      "outputs": [
        {
          "internalType": "bool",
          "name": "",
          "type": "bool"
        }
      ],
      "stateMutability": "nonpayable",
      "type": "function"
    }
  ],
  "bytecode": "0x60806040523480156200001157600080fd5b506040518060400160405280600781526020017f4e6577436f696e000000000000000000000000000000000000000000000000008152506040518060400160405280600481526020017f4e4557430000000000000000000000000000000000000000000000000000000081525081600390816200008f919062000340565b508060049081620000a1919062000340565b5050506008600560006101000a81548160ff021916908360ff16021790555062000427565b600081519050919050565b7f4e487b7100000000000000000000000000000000000000000000000000000000600052604160045260246000fd5b7f4e487b7100000000000000000000000000000000000000000000000000000000600052602260045260246000fd5b600060028204905060018216806200014857607f821691505b6020821081036200015e576200015d62000100565b5b50919050565b60008190508160005260206000209050919050565b60006020601f8301049050919050565b600082821b905092915050565b600060088302620001c87fffffffffffffffffffffffffffffffffffffffffffffffffffffffffffffffff8262000189565b620001d4868362000189565b95508019841693508086168417925050509392505050565b6000819050919050565b6000819050919050565b6000620002216200021b6200021584620001ec565b620001f6565b620001ec565b9050919050565b6000819050919050565b6200023d8362000200565b620002556200024c8262000228565b84845462000196565b825550505050565b600090565b6200026c6200025d565b6200027981848462000232565b505050565b5b81811015620002a1576200029560008262000262565b6001810190506200027f565b5050565b601f821115620002f057620002ba8162000164565b620002c58462000179565b81016020851015620002d5578190505b620002ed620002e48562000179565b8301826200027e565b50505b505050565b600082821c905092915050565b60006200031560001984600802620002f5565b1980831691505092915050565b600062000330838362000302565b9150826002028217905092915050565b6200034b82620000c6565b67ffffffffffffffff811115620003675762000366620000d1565b5b6200037382546200012f565b62000380828285620002a5565b600060209050601f831160018114620003b85760008415620003a3578287015190505b620003af858262000322565b8655506200041f565b601f198416620003c88662000164565b60005b82811015620003f257848901518255600182019150602085019450602081019050620003cb565b868310156200041257848901516200040e601f89168262000302565b8355505b6001600288020188555050505b505050505050565b61110380620004376000396000f3fe608060405234801561001057600080fd5b506004361061009e5760003560e01c80636a627842116100665780636a6278421461015d57806370a082311461017957806395d89b41146101a9578063a9059cbb146101c7578063dd62ed3e146101f75761009e565b806306fdde03146100a3578063095ea7b3146100c157806318160ddd146100f157806323b872dd1461010f578063313ce5671461013f575b600080fd5b6100ab610227565b6040516100b89190610b97565b60405180910390f35b6100db60048036038101906100d69190610c52565b6102b9565b6040516100e89190610cad565b60405180910390f35b6100f96102dc565b6040516101069190610cd7565b60405180910390f35b61012960048036038101906101249190610cf2565b6102e6565b6040516101369190610cad565b60405180910390f35b610147610315565b6040516101549190610d61565b60405180910390f35b61017760048036038101906101729190610d7c565b61032c565b005b610193600480360381019061018e9190610d7c565b610363565b6040516101a09190610cd7565b60405180910390f35b6101b16103ab565b6040516101be9190610b97565b60405180910390f35b6101e160048036038101906101dc9190610c52565b61043d565b6040516101ee9190610cad565b60405180910390f35b610211600480360381019061020c9190610da9565b610460565b60405161021e9190610cd7565b60405180910390f35b60606003805461023690610e18565b80601f016020809104026020016040519081016040528092919081815260200182805461026290610e18565b80156102af5780601f10610284576101008083540402835291602001916102af565b820191906000526020600020905b81548152906001019060200180831161029257829003601f168201915b5050505050905090565b6000806102c46104e7565b90506102d18185856104ef565b600191505092915050565b6000600254905090565b6000806102f16104e7565b90506102fe858285610501565b610309858585610595565b60019150509392505050565b6000600560009054906101000a900460ff16905090565b61036081600560009054906101000a900460ff1660ff16600a61034f9190610fab565b600161035b9190610ff6565b610689565b50565b60008060008373ffffffffffffffffffffffffffffffffffffffff1673ffffffffffffffffffffffffffffffffffffffff168152602001908152602001600020549050919050565b6060600480546103ba90610e18565b80601f01602080910402602001604051908101604052809291908181526020018280546103e690610e18565b80156104335780601f1061040857610100808354040283529160200191610433565b820191906000526020600020905b81548152906001019060200180831161041657829003601f168201915b5050505050905090565b6000806104486104e7565b9050610455818585610595565b600191505092915050565b6000600160008473ffffffffffffffffffffffffffffffffffffffff1673ffffffffffffffffffffffffffffffffffffffff16815260200190815260200160002060008373ffffffffffffffffffffffffffffffffffffffff1673ffffffffffffffffffffffffffffffffffffffff16815260200190815260200160002054905092915050565b600033905090565b6104fc838383600161070b565b505050565b600061050d8484610460565b90507fffffffffffffffffffffffffffffffffffffffffffffffffffffffffffffffff811461058f578181101561057f578281836040517ffb8f41b200000000000000000000000000000000000000000000000000000000815260040161057693929190611047565b60405180910390fd5b61058e8484848403600061070b565b5b50505050565b600073ffffffffffffffffffffffffffffffffffffffff168373ffffffffffffffffffffffffffffffffffffffff16036106075760006040517f96c6fd1e0000000000000000000000000000000000000000000000000000000081526004016105fe919061107e565b60405180910390fd5b600073ffffffffffffffffffffffffffffffffffffffff168273ffffffffffffffffffffffffffffffffffffffff16036106795760006040517fec442f05000000000000000000000000000000000000000000000000000000008152600401610670919061107e565b60405180910390fd5b6106848383836108e2565b505050565b600073ffffffffffffffffffffffffffffffffffffffff168273ffffffffffffffffffffffffffffffffffffffff16036106fb5760006040517fec442f050000000000000000000000000000000000000000000000000000000081526004016106f2919061107e565b60405180910390fd5b610707600083836108e2565b5050565b600073ffffffffffffffffffffffffffffffffffffffff168473ffffffffffffffffffffffffffffffffffffffff160361077d5760006040517fe602df05000000000000000000000000000000000000000000000000000000008152600401610774919061107e565b60405180910390fd5b600073ffffffffffffffffffffffffffffffffffffffff168373ffffffffffffffffffffffffffffffffffffffff16036107ef5760006040517f94280d620000000000000000000000000000000000000000000000000000000081526004016107e6919061107e565b60405180910390fd5b81600160008673ffffffffffffffffffffffffffffffffffffffff1673ffffffffffffffffffffffffffffffffffffffff16815260200190815260200160002060008573ffffffffffffffffffffffffffffffffffffffff1673ffffffffffffffffffffffffffffffffffffffff1681526020019081526020016000208190555080156108dc578273ffffffffffffffffffffffffffffffffffffffff168473ffffffffffffffffffffffffffffffffffffffff167f8c5be1e5ebec7d5bd14f71427d1e84f3dd0314c0f7b2291e5b200ac8c7c3b925846040516108d39190610cd7565b60405180910390a35b50505050565b600073ffffffffffffffffffffffffffffffffffffffff168373ffffffffffffffffffffffffffffffffffffffff16036109345780600260008282546109289190611099565b92505081905550610a07565b60008060008573ffffffffffffffffffffffffffffffffffffffff1673ffffffffffffffffffffffffffffffffffffffff168152602001908152602001600020549050818110156109c0578381836040517fe450d38c0000000000000000000000000000000000000000000000000000000081526004016109b793929190611047565b60405180910390fd5b8181036000808673ffffffffffffffffffffffffffffffffffffffff1673ffffffffffffffffffffffffffffffffffffffff16815260200190815260200160002081905550505b600073ffffffffffffffffffffffffffffffffffffffff168273ffffffffffffffffffffffffffffffffffffffff1603610a505780600260008282540392505081905550610a9d565b806000808473ffffffffffffffffffffffffffffffffffffffff1673ffffffffffffffffffffffffffffffffffffffff168152602001908152602001600020600082825401925050819055505b8173ffffffffffffffffffffffffffffffffffffffff168373ffffffffffffffffffffffffffffffffffffffff167fddf252ad1be2c89b69c2b068fc378daa952ba7f163c4a11628f55a4df523b3ef83604051610afa9190610cd7565b60405180910390a3505050565b600081519050919050565b600082825260208201905092915050565b60005b83811015610b41578082015181840152602081019050610b26565b60008484015250505050565b6000601f19601f8301169050919050565b6000610b6982610b07565b610b738185610b12565b9350610b83818560208601610b23565b610b8c81610b4d565b840191505092915050565b60006020820190508181036000830152610bb18184610b5e565b905092915050565b600080fd5b600073ffffffffffffffffffffffffffffffffffffffff82169050919050565b6000610be982610bbe565b9050919050565b610bf981610bde565b8114610c0457600080fd5b50565b600081359050610c1681610bf0565b92915050565b6000819050919050565b610c2f81610c1c565b8114610c3a57600080fd5b50565b600081359050610c4c81610c26565b92915050565b60008060408385031215610c6957610c68610bb9565b5b6000610c7785828601610c07565b9250506020610c8885828601610c3d565b9150509250929050565b60008115159050919050565b610ca781610c92565b82525050565b6000602082019050610cc26000830184610c9e565b92915050565b610cd181610c1c565b82525050565b6000602082019050610cec6000830184610cc8565b92915050565b600080600060608486031215610d0b57610d0a610bb9565b5b6000610d1986828701610c07565b9350506020610d2a86828701610c07565b9250506040610d3b86828701610c3d565b9150509250925092565b600060ff82169050919050565b610d5b81610d45565b82525050565b6000602082019050610d766000830184610d52565b92915050565b600060208284031215610d9257610d91610bb9565b5b6000610da084828501610c07565b91505092915050565b60008060408385031215610dc057610dbf610bb9565b5b6000610dce85828601610c07565b9250506020610ddf85828601610c07565b9150509250929050565b7f4e487b7100000000000000000000000000000000000000000000000000000000600052602260045260246000fd5b60006002820490506001821680610e3057607f821691505b602082108103610e4357610e42610de9565b5b50919050565b7f4e487b7100000000000000000000000000000000000000000000000000000000600052601160045260246000fd5b60008160011c9050919050565b6000808291508390505b6001851115610ecf57808604811115610eab57610eaa610e49565b5b6001851615610eba5780820291505b8081029050610ec885610e78565b9450610e8f565b94509492505050565b600082610ee85760019050610fa4565b81610ef65760009050610fa4565b8160018114610f0c5760028114610f1657610f45565b6001915050610fa4565b60ff841115610f2857610f27610e49565b5b8360020a915084821115610f3f57610f3e610e49565b5b50610fa4565b5060208310610133831016604e8410600b8410161715610f7a5782820a905083811115610f7557610f74610e49565b5b610fa4565b610f878484846001610e85565b92509050818404811115610f9e57610f9d610e49565b5b81810290505b9392505050565b6000610fb682610c1c565b9150610fc183610c1c565b9250610fee7fffffffffffffffffffffffffffffffffffffffffffffffffffffffffffffffff8484610ed8565b905092915050565b600061100182610c1c565b915061100c83610c1c565b925082820261101a81610c1c565b9150828204841483151761103157611030610e49565b5b5092915050565b61104181610bde565b82525050565b600060608201905061105c6000830186611038565b6110696020830185610cc8565b6110766040830184610cc8565b949350505050565b60006020820190506110936000830184611038565b92915050565b60006110a482610c1c565b91506110af83610c1c565b92508282019050808211156110c7576110c6610e49565b5b9291505056fea264697066735822122001b2cff682f4a838b0b7a5310f264b331bcce85564efe3030fb8f118b45be15464736f6c63430008180033",
  "linkReferences": {},
  "deployedLinkReferences": {}
}